:03000000020519DD
:0C051900787FE4F6D8FD758120020560B3
:0C000300000000000000000000000000F1
:0B09BE00EF1FAC0670011E4C70F6220B
:10093700AB07AA06EB1BAE0270011A4E60097FAA2D
:080947007E051209BE80ED22BD
:1003BD00907120E04480F07F057E001209BEE4FFBD
:1003CD00FE12093775A75575AC589071327450F0FF
:1003DD009071307403F0907136742FF07F18EF2404
:1003ED0066FDE434718D82F583E4F00FEFB433EEE6
:1003FD00904011E4935407FF90711CE054F84FF0B6
:10040D00904017E493547FFF90711DE054804FF09E
:10041D00904010E493FF5401C43333335480FE9065
:10042D007123E0547F4EF0EFC313543F4440FFA3BC
:10043D00E054804FF0904012E493FF540FFE907102
:10044D0046E054F04EF0EFC4540FFF90714FE0545E
:10045D00F04FF0904013E493543FFF907140E054FF
:10046D00C04FF0904014E493907126F0904015E445
:0E047D0093907128F0904016E49390712AF04D
:01048B00224E
:1007000042602C000042602E0000C100C101416027
:020710003000B7
:1008250078E2E24430F278C3E2440CF2907123E0BE
:1008350054D8F0E0441DF09071227407F043AA04E7
:10084500D2AF786AE24479F218E24448F27F017E39
:04085500000209375D
:0D000F00EF146006047005D20022D2012219
:0D098B00EF146006047005C20022C20122B4
:10096600E4FEEF146007047009A2008002A201E40D
:0409760033FEAF0697
:01097A00225A
:10002100E4FDFCC2AFEF14600804700D90602C80F9
:0F0031000390602EE0FCA3E0FDD2AFAE04AF055C
:01004000229D
:10097B00EF24FE6007047007759912227599052202
:10062900906030E06004E0B4040C7F0112097B9013
:1006390060307401F022906030E0B4010A7869E218
:100649004401F27402F022906030E0B402097F02A2
:1006590012097B7403F022906030E0B403097869D1
:08066900E24401F27404F022E6
:030042000205A50F
:1005A500C0E0C0F0C083C082C0D075D000C000C01C
:0305B50005C00777
:1005B80090603DE4F0A3F0786BE230E153AF93EF45
:1005C80075F010A4FFE594C4540FFDEF4DFF906043
:1005D8003DE5F0F0A3EFF0E24402F2906030E0B4C1
:1005E800021390603DE0FFA3E090602CCFF0A3EFF2
:1005F800F0E4FF8018906030E0B4041490603DE0AF
:10060800FFA3E090602ECFF0A3EFF07F0112000F60
:10061800D007D005D000D0D0D082D083D0F0D0E0A1
:01062800329F
:080712004560310102080A6490
:10094F00906031E0FBE4FAF9F87F807EBBFDFC128A
:07095F0001C3EF24FFFF229A
:10088C0043A820D2AF75D10112094FEE34FFFEED13
:10089C0034FFFDEC34FFFC78081202557895EFF22A
:1008AC0012094F7894EFF2789174A0F21874E1F277
:0108BC002219
:03001E0002067166
:10067100C0E0C0F0C083C082C0D075D000C000C04F
:1006810001C002C003C004C005C006C0077891E2E2
:1006910030E70AE24480F2120740120629D007D05F
:1006A10006D005D004D003D002D001D000D0D0D0E4
:0806B10082D083D0F0D0E032CA
:10071A0050601C0000000001FF09E600000000050F
:03072A00FF07BB0B
:10091900EF75F008A4241DF582E43460F58322EF15
:0E09290075F008A4241CF582E43460F58322E6
:10077F00E490603BF0F090603BE0FFC39402502B9D
:10078F00120928E0601D90603BE0120929E4F0EFA8
:10079F0075F008A42421F582E43460F58312026811
:0B07AF001202AA90603BE004F080CB37
:0107BA00221C
:10074000E4FF120919E475F0011200BFEF75F0081B
:10075000A4241FF582E43460F583E0FCA3E0FD12DD
:100760000919E0FAA3E0C39DEA9C400D120919E4BF
:0E077000F0A3F01209287401F00FEFB402C4D8
:01077E002258
:0B09C900AC06ECF218EFF27817E22207
:10048C0078E2E254F3F2E24404F290718F740AF0D1
:10049C0078C3E254CFF2E24410F29071847409F004
:1004AC007856E4F278277409F218745FF27833E422
:1004BC00F218F27819E254FEF218E24401F27811C3
:1004CC00E24401F27817E24401F27812E24401F2BC
:1004DC007814E24401F27857E4F278297409F2189E
:1004EC00745FF27837E4F218F27819E254FDF218DE
:1004FC00E24402F27811E24402F27817E24402F28A
:0D050C007812E24402F27814E24402F22276
:0909D40078331209C94401F22232
:0909DD0078371209C94402F22224
:04072D0041603FFFE9
:0D09980078F0E24402F278F3E254F3F22228
:1007BB00A2B1E43390603BF090603FE0FF90603B70
:1007CB00E06F602090603FE0F4601190603BE06070
:1007DB000B7B017A607900E4FD1206B990603BE077
:0407EB0090603FF0EB
:0107EF0022E7
:0607310043601900000006
:1008EE0090001612027A1202AA9060190202681281
:1008FE0000D5D39479E5F09406900005E422E490B7
:0B090E00000102009D90000102005E4D
:0C09B200E4FFFE1209D4E4FFFE0209DDA0
:0709EF007FF87E070209D426
:0709F6007FF87E070209DD16
:1007F000E4FF120966EF6012E4FF12098BE4FF12B6
:100800000021906007EEF0A3EFF07F01120966EF80
:1008100060127F0112098B7F01120021906009EEA6
:05082000F0A3EFF0223F
:10085900E4906000F0A3F0A3F07BFF7A0979EF90B0
:1008690060101202717A0979F69060131202717A96
:100879000979B29060161202717A0779F090600DC9
:03088900020271F7
:1006B90090603CEDF09060191202711208EE120977
:1006C9000C90603CE0146011146012240270131243
:1006D9000045B40102800680007401800274021290
:1006E900008B1208F7900003E475F03212015A905A
:0706F9000002740102009DE4
:1002CE0090601912027190000212005E601C1208FA
:1002DE00F79000031200D5D39400E5F09400400A85
:1002EE0090000374FFF5F012010D1208F790000252
:1002FE0012005E603C9000031200D545F070329003
:10030E00000212009D120045906019B4010D1202F8
:10031E0068740112090D900010801012026890008E
:10032E0001740212009DC29790001312027A1202FB
:10033E00AA1208F790000D1208F1120913B4010A5F
:10034E009000071208FD401E800E120913B402120F
:10035E009000091208FD400875F00112010D800B86
:10036E008004900005E4F5F012015A120913900072
:10037E000B6009E475F00112010D8006E4F5F01230
:10038E00015A9000051200D5D394C8E5F0940050A0
:10039E000F90000B1200D5D39440E5F0941F400E41
:0F03AE0012090C1208EE120045B40102D2972278
:0909E6007B017A6079000202CE67
:0D09A50078D3E2543FF2E24440F2C29722C0
:080737004560360102080A6466
:1008BD001203BD75D95590715EE054FEF075D9BB2C
:1008CD0012048C1208251209981209A51208591242
:1008DD00088C7F0A7E0012093775D9AA12077F800E
:0108ED00F812
:100525000208BDE493A3F8E493A34003F68001F227
:1005350008DFF48029E493A3F85407240CC8C333D7
:10054500C4540F4420C8834004F456800146F6DFA6
:10055500E4800B0102040810204080900700E47E2F
:10056500019360BCA3FF543F30E509541FFEE4939B
:10057500A360010ECF54C025E060A840B8E493A362
:10058500FAE493A3F8E493A3C8C582C8CAC583CA8D
:10059500F0A3C8C582C8CAC583CADFE9DEE780BE45
:01073F0000B9
:10004500BB010689828A83E0225002E722BBFE02B9
:09005500E32289828A83E49322EC
:10005E00BB010CE58229F582E5833AF583E0225057
:10006E0006E92582F8E622BBFE06E92582F8E222A1
:0D007E00E58229F582E5833AF583E49322BB
:10008B00BB010689828A83F0225002F722BBFE0154
:02009B00F3224E
:10009D00F8BB010DE58229F582E5833AF583E8F099
:1000AD00225006E92582C8F622BBFE05E92582C845
:0200BD00F2222D
:1000BF00C5F0F8A3E028F0C5F0F8E58215827002CC
:0600CF001583E038F02269
:1000D500BB0110E58229F582E5833AF583E0F5F069
:1000E500A3E0225009E92582F886F008E622BBFE46
:1000F5000AE92582F8E2F5F008E222E5832AF5838C
:08010500E993F5F0A3E9932250
:10010D00BB010DC58229C582C5833AC5830200BFD7
:10011D005011C58229F808E5F026F618F5F0E582AC
:10012D0036F622BBFE11C58229F808E225F0F5F05E
:10013D00F218E23582F222F8E58229F582E5832A6A
:0D014D00F58374019325F0F5F0E49338225A
:10015A00F8BB0111E58229F582E5833AF583E8F0D7
:10016A00E5F0A3F0225009E92582C8F608A6F02294
:0D017A00BBFE09E92582C8F2E5F008F2227B
:1001870075F008758200EF2FFFEE33FECD33CDCC2F
:1001970033CCC58233C5829BED9AEC99E5829840B2
:1001A7000CF582EE9BFEED9AFDEC99FC0FD5F0D68F
:1001B700E4CEFBE4CDFAE4CCF9A88222B800C1B9B9
:1001C7000059BA002DEC8BF084CFCECDFCE5F0CBF7
:1001D700F97818EF2FFFEE33FEED33FDEC33FCEB30
:1001E70033FB10D703994004EB99FB0FD8E5E4F9EB
:1001F700FA227818EF2FFFEE33FEED33FDEC33FCD8
:10020700C933C910D7059BE99A4007EC9BFCE99ACB
:10021700F90FD8E0E4C9FAE4CCFB2275F010EF2F10
:10022700FFEE33FEED33FDCC33CCC833C810D70710
:100237009BEC9AE899400AED9BFDEC9AFCE899F84B
:0E0247000FD5F0DAE4CDFBE4CCFAE4C8F922DE
:10025500E8600FECC313FCED13FDEE13FEEF13FF87
:03026500D8F122AB
:09026800E0FBA3E0FAA3E0F92297
:09027100EBF0A3EAF0A3E9F0228E
:10027A00BB010DE58229F582E5833AF5830202681E
:10028A005007E92582F80202B0BBFE07E92582F889
:10029A000202B9E58229F582E5833AF5830202C2B0
:0602AA008A838982E473DF
:0902B000E6FB08E6FA08E6F92273
:0902B900E2FB08E2FA08E2F92276
:0C02C200E493FB740193FA740293F92298
:00000001FF
