:03000000020B08E8
:0C0B0800787FE4F6D8FD758120020B4FC9
:0C000300000000000000000000000000F1
:0B12E700EF1FAC0670011E4C70F622D9
:1011DF00AB07AA06EB1BAE0270011A4E60097FAA7D
:0811EF007E051212E780ED22DB
:10083500907120E04480F07F057E001212E7E4FF0E
:10084500FE1211DF75A75575AC589071327450F0D2
:100855009071307403F0907136742FF07F18EF2487
:1008650066FDE434718D82F583E4F00FEFB433EE69
:10087500904011E4935407FF90711CE054F84FF039
:10088500904017E493547FFF90711DE054804FF022
:10089500904010E493FF5401C43333335480FE90E9
:1008A5007123E0547F4EF0EFC313543F4440FFA340
:1008B500E054804FF0904012E493FF540FFE907186
:1008C50046E054F04EF0EFC4540FFF90714FE054E2
:1008D500F04FF0904013E493543FFF907140E05483
:1008E500C04FF0904014E493907126F0904015E4C9
:0E08F50093907128F0904016E49390712AF0D1
:0109030022D1
:080422004561400102080A6473
:100F0D0012083575D95590715EE054FEF075D9BB58
:100F1D001210AD12074D120E521211C6120C0D12F7
:100F2D00126812107C7F0A7E001211DF75D9AA1289
:070F3D000ED112054A80F5F8
:10042A004A6127000000000000000000004161311D
:10043A000041613200416133004261340000416190
:02044A0026008A
:10120F00906131E0FE04F074272EF582E43461F52D
:07121F0083EFF09061322221
:0F000F00906133E06008A3E475F00A1202132237
:10054A00E4906114F0120045EF7016C3906135E033
:10055A0094D0906134E09407500302065EE40206E8
:10056A00539061337401F0E4A3F0A3F012123D90AA
:10057A006126E01460191460222402707AEF64A5DF
:10058A007075906127EFF090613174010205F412E1
:10059A00120FF09061267402F0805C12120FE0FFD5
:1005AA00906131E0C39F404FE4FF906132E014FE56
:1005BA00EFC39E501574272FF582E43461F583E06A
:1005CA00FE906114E02EF00F80E0906132E0242664
:1005DA00F582E43461F583E0FF906114E06F601105
:1005EA00E4906134F0A3F0906133F0906126F080DA
:1005FA00069061267403F0906126E06403705590BA
:10060A006129E024FE601E04703B90612AE024FE0A
:10061A00600B0470307B017A60798380197B017AE0
:10062A00607983801B90612AE024FE600D047015B6
:10063A007B017A60799D7D0180087B017A60799DD2
:10064A007D02120DAFE4906134F0A3F0906133F0B3
:04065A00906126F095
:01065E002279
:10125400000000000000000000000000000000008A
:041264000000000086
:08044C004160FE004161130054
:100B9400EBFFE02FFFE433CF24FFCF34FFFEEAFD69
:100BA400C3EF9DFFEE9400FEEBFD7C001201BEAF8F
:100BB4000522EA25E02417F582E43461F58322EA6C
:100BC40025E02417F582E43461F5832274EA2FF5D5
:100BD40082E43460F5832274FF2FF582E43460F5F7
:100BE4008322EAFFEBC39FFFE49400FEAD01E922F8
:100BF4007D017BFF7E007F0A12011EE422FFE0FCE0
:090C0400A3E0FDD3EF9DEE9C225C
:101144009060FEE024EA120BD3EFF09060FEE0041E
:0A115400F0E0C394144002E4F0221E
:10115E00906113E024FF120BDEEFF0906113E004B8
:0A116E00F0E0C394144002E4F02204
:100C7F0078177C617A127954120BF4906121F0A3EA
:100C8F00F0A3F07B14FAEAC39B501F9060FE120B87
:100C9F0094120BD0E0F9C39405500C120BE6120B13
:100CAF00B7EE8FF01202130A80DCE4FA120BB6E0F3
:100CBF00FEA3E0906122120C014014120BB6E0FF6C
:100CCF00A3E0906122CFF0A3EFF0906121EAF00A48
:090CDF00EAB405D8906121E0FFA0
:010CE80022E9
:100CE90078177C617A12795E120BF4906121F0A376
:100CF900F0A3F07B14FAEAC39B501F906113120B07
:100D090094120BDBE0F9C39405500C120BE6120B9D
:100D1900C4EE8FF01202130A80DCE4FA120BC3E06E
:100D2900FEA3E0906122120C014014120BC3E0FFF4
:100D3900A3E0906122CFF0A3EFF0906121EAF00ADD
:090D4900EAB405D8906121E0FF35
:010D5200227E
:10126800E4FF120BD0E4F0120BDBE4F00FEFB41440
:01127800F184
:011279002252
:10090400E4906114F0906083E0906115F09060844D
:10091400E0906116F0E0701E906115E0B40108905B
:1009240061147402F0802B906115E0B4022490618C
:10093400147404F0801C906116E0B40108906114F2
:100944007401F0800D906116E0B402069061147495
:1009540003F0906085E06008906114E0FF12114498
:10096400E4906114F090609DE0906115F090609EB9
:10097400E0906116F0E0701E906115E0B4010890FB
:1009840061147402F0802B906115E0B4022490612C
:10099400147404F0801C906116E0B4010890611492
:1009A4007401F0800D906116E0B402069061147435
:1009B40003F090609FE06008906114E0FF12115E04
:0109C4002210
:100D5300120C7F906114EFF0120CE9906115EFF023
:100D6300E4A3F0906114E024AB906116120D987F18
:100D7300011212AA906114120DA41212AA90611505
:100D8300E024ACA3120D987F021212AA90611512EF
:050D93000DA40212AAEC
:100D9800F07FA51212AA7F051212AA22E0FF1212F2
:070DA800AA906116E0FF2292
:100454004261360000426138000042613A000042C5
:10046400613C0000C100C101C102C10341613E0001
:0404740041613F00A3
:1011AC00C4540FFDEF4DFF906124E5F0F0A3EFF078
:0A11BC00E222906124E0FFA3E0228C
:100E520078D2E24430F278C2E24403F278E2E24429
:100E62000CF278F2E24403F2907123E054D8F0E0FD
:100E7200441DF09071227407F043AA04D2AF786A3D
:100E8200E2447BF218E24458F27F017E000211DF55
:10117800EF14600D14600D14600D2403700BD20081
:0A11880022D20122D20222D2032259
:10119200EF14600D14600D14600D2403700BC20077
:0A11A20022C20122C20222C203226F
:1010FC00E4FEEF14600E14600F14601024037011E2
:10110C00A200800AA2018006A2028002A203E4339C
:03111C00FEAF061D
:01111F0022AD
:10104B00E4FDFCC2AFEF14600F14601114601324A5
:10105B00037017906136800D906138800890613A6B
:10106B00800390613CE0FCA3E0FDD2AFAE04AF0582
:01107B002252
:10127A00EF24FE600704700775990A22E4F59922A3
:10128A00EF24FE6007047007759A1122759A1822D6
:100A760090613EE06004E0B4040D7F0112127A90AA
:100A8600613E7401F0803390613EE0B4010B7869F9
:100A9600E24401F27402F0802190613EE0B4020A61
:100AA6007F0212127A7403F0801090613EE0B40364
:100AB600097869E24401F27404F090613FE0600451
:100AC600E0B4040C7F0112128A90613F7401F02297
:100AD60090613FE0B4010A7869E24402F27402F0E0
:100AE6002290613FE0B402097F0212128A7403F079
:100AF6002290613FE0B403097869E24402F274048B
:020B0600F022DB
:030042000209C5EB
:1009C500C0E0C0F0C083C082C0D075D000C000C0F8
:0309D50005C00753
:1009D800906124E4F0A3F0786BE230E13DAF93EF4F
:1009E80075F010A4FFE5941211AC4402F290613E38
:1009F800E0B4020F1211BE906136CFF0A3EFF0E41D
:100A0800FF801490613EE0B404101211BE9061386A
:100A1800CFF0A3EFF07F01121178786BE230E23D5E
:100A2800AF95EF75F010A4FFE5961211AC4404F2EF
:100A380090613FE0B4020F1211BE90613ACFF0A36B
:100A4800EFF07F02801490613FE0B404101211BEF1
:0D0A580090613CCFF0A3EFF07F0312117806
:100A6500D007D005D000D0D0D082D083D0F0D0E050
:010A7500324E
:080478004561450102080A6418
:10122600906145E0FBE4FAF9F87F807EBBFDFC1295
:071236000317EF24FFFF2264
:10107C0043A820D2AF75D101121226EE34FFFEED3B
:10108C0034FFFDEC34FFFC78081203A97895EFF2DD
:10109C001212267894EFF2789174A0F21874E1F29F
:0110AC002221
:03001E00020E07C8
:100E0700C0E0C0F0C083C082C0D075D000C000C0B1
:100E170001C002C003C004C005C006C0077891E244
:100E270030E70DE24480F2120E92120A7612000F9A
:100E3700D007D006D005D004D003D002D001D0000F
:0B0E4700D0D0D082D083D0F0D0E032B9
:10048000603060BA0000000001FF130400000000AB
:1004900001FF130D0000000005FF0F4400000000E5
:1004A00005FF0F79000000000AFF090400000000AA
:0404B000C8FF0D5321
:10002100EF75F008A424BBF582E43460F58322EF78
:0E00310075F008A424BAF582E43460F5832249
:100ED100E4906114F0F0906114E0FFC39406502B8C
:100EE100120030E0601D906114E0120031E4F0EF77
:100EF10075F008A424BFF582E43460F5831203BCC5
:0B0F01001203FE906114E004F080CBAE
:010F0C0022C2
:100E9200E4FF120021E475F001120213EF75F0086D
:100EA200A424BDF582E43460F583E0FCA3E0FD12E6
:100EB2000021E0FAA3E0C39DEA9C400D120021E468
:0E0EC200F0A3F01200307401F00FEFB406C47C
:010ED00022FF
:10112000AC06ECF218EFF27817E2227409F21874A8
:101130005FF222E4F218F27819E222E2543FF2E27E
:041140004440F22213
:10074D0078D212113B907189740AF0E254F3F2E2FF
:10075D004404F29071877409F078E312113B9071A3
:10076D00957408F078C212113B9071817407F0787E
:10077D0056E4F2782712112B783312113354FEF20E
:10078D0018E24401F27811E24401F27817E24401D3
:10079D00F27812E24401F27814E24401F27857E45F
:1007AD00F2782912112B783712113354FDF218E219
:1007BD004402F27811E24402F27817E24402F27830
:1007CD0012E24402F27814E24402F27858E4F2782C
:1007DD002B12112B783B12113354FBF218E2440407
:1007ED00F27811E24404F27817E24404F27812E24E
:1007FD004404F27814E24404F27859E4F2782D12AC
:10080D00112B783F12113354F7F218E24408F278A5
:10081D0011E24408F27817E24408F27812E2440833
:08082D00F27814E24408F22203
:0912F20078331211204401F222AC
:0912FB0078371211204402F2229E
:0C12B700AC06EC783B1211234404F22238
:0C12C300AC06EC783F1211234408F22224
:0804B40041614AFF41614BFF69
:1011C60078D0E24440F278D3E254CFF278C0E244D9
:0911D60004F278C2E254CFF222C7
:100F4400A296E433906114F090614AE0FF9061143A
:100F5400E06F602090614AE0F46011906114E060F9
:100F64000B7B017A607983E4FD120DAF906114E08C
:040F740090614AF04E
:010F78002256
:100F7900A282E433906114F090614BE0FF90611418
:100F8900E06F602090614BE0F46011906114E060C3
:100F99000B7B017A60799DE4FD120DAF906114E03D
:040FA90090614BF018
:010FAD002221
:1004BC0060836000000000000000000000000000ED
:1004CC000000000000000000000000000000000020
:1004DC000000000000000000000000000000000010
:1004EC000000000000000000000000000000000000
:1004FC0000000000000000000000000000000000F0
:10050C0000000000000000000000000000000000DF
:10051C0000000000000000000000000000000000CF
:10052C0000000000000000000000000000000000BF
:07053C0000000000000000B8
:10129A00E004547FF0E02400F582E43460F5832210
:1010AD0078D3E254F3F2E24404F290718B7404F0BD
:1010BD00E254FCF2907175740DF075D60175D59FE3
:0910CD0075D21143AA20D2AF2212
:0D12AA00E5D430E4FB8FD7E5D430E4FB221F
:06004500906082E0FF2242
:10123D00906082E07002FF2290608112129AE0FFAE
:06124D00906082E014F045
:011253002278
:1011F70090608012129AEFF0906082E004F0E0D3E2
:08120700948040037480F02282
:03004B000210D6CA
:1010D600C0E0C083C082C0D075D000C005C007E59F
:1010E600D430E505AFD71211F7D007D005D0D0D050
:0610F60082D083D0E0323D
:060543004360B700000058
:101018009000171203CE1203FE9060B70203BC12B1
:101028000229D39479E5F09406900006E422E4902E
:10103800000102019C740190000202019C900001D1
:0310480002015D45
:0C12CF00E4FFFE1212F2E4FFFE0212FB2C
:071316007FF87E070212F2CE
:07131D007FF87E070212FBBE
:100FAE00E4FF1210FCEF6012E4FF121192E4FF1244
:100FBE00104B90608BEEF0A3EFF07F011210FCEF60
:100FCE0060127F011211927F0112104B90608DEE14
:050FDE00F0A3EFF0227A
:0C12DB00E4FFFE1212B7E4FFFE0212C393
:071324007FF87E070212B7FB
:07132B007FF87E070212C3E8
:100FE3007F021210FCEF60127F021211927F021235
:100FF300104B9060A5EEF0A3EFF07F031210FCEF0F
:1010030060127F031211927F0312104B9060A7EEC0
:05101300F0A3EFF02244
:100C0D00E4906083F0A3F0906086F07BFF7A137917
:100C1D00169060941203C57A13791D906097120394
:100C2D00C57A1279CF90609A1203C57A0F79AE907A
:100C3D0060911203C5E4906085F090609DF0A3F083
:100C4D009060A0F07A1379249060AE1203C57A13E8
:100C5D00792B9060B11203C57A1279DB9060B412D2
:100C6D0003C57A0F79E39060AB1203C5E4906085FC
:020C7D00F02263
:100DAF00906115EDF09060B71203C512102112106B
:100DBF0018121036E412103F906115E014601414ED
:100DCF0060182402701C121021120144B401028019
:100DDF000C8003121021740180051210217402126D
:100DEF00018A121021900004740175F02C1202AECA
:080DFF00900003740102019C45
:10065F009060B71203C590000312015D601C121069
:10066F0021900004120229D39400E5F09400400A6F
:10067F0090000474FFF5F012026112102190000334
:10068F0012015D604090000412022945F07036900F
:10069F00000312019C1201449060B7B4010D1203C4
:1006AF00BC7401121037900011800E1203BC900021
:1006BF0001740212019C9000141203CE1203FE1259
:1006CF00102112103D12102190000E12101B12104B
:1006DF0045B4010A900008121027401E800E121018
:1006EF0045B4021290000A121027400875F001124B
:1006FF000261800B8004900006E4F5F01202AE1246
:10070F00104590000C6009E475F00112026180063B
:10071F00E4F5F01202AE900006120229D394C8E558
:10072F00F09400500F90000C120229D39440E5F082
:0E073F00941F400912103612101812103D229D
:091304007B017A60798302065F27
:09130D007B017A60799D02065F04
:100B1400020F0DE493A3F8E493A34003F68001F2DB
:100B240008DFF48029E493A3F85407240CC8C333E2
:100B3400C4540F4420C8834004F456800146F6DFB1
:100B4400E4800B0102040810204080900422E47E1B
:100B5400019360BCA3FF543F30E509541FFEE493A6
:100B6400A360010ECF54C025E060A840B8E493A36D
:100B7400FAE493A3F8E493A3C8C582C8CAC583CA98
:100B8400F0A3C8C582C8CAC583CADFE9DEE780BE50
:0105490000B1
:10004E00E709F608DFFA8046E709F208DFFA803E94
:10005E0088828C83E709F0A3DFFA8032E309F60881
:10006E00DFFA8078E309F208DFFA807088828C83E9
:10007E00E309F0A3DFFA806489828A83E0A3F6089D
:10008E00DFFA805889828A83E0A3F208DFFA804C77
:10009E0080D280FA80C680D4806980F2803380104E
:1000AE0080A680EA809A80A880DA80E280CA8033B7
:1000BE0089828A83ECFAE493A3C8C582C8CCC5832F
:1000CE00CCF0A3C8C582C8CCC583CCDFE9DEE780FF
:1000DE000D89828A83E493A3F608DFF9ECFAA9F07E
:1000EE00EDFB2289828A83ECFAE0A3C8C582C8CCD4
:1000FE00C583CCF0A3C8C582C8CCC583CCDFEADEED
:10010E00E880DB89828A83E493A3F208DFF980CC4E
:10011E0088F0EF60010E4E60C388F0ED2402B40447
:10012E000050B9F582EB2402B4040050AF232345EE
:06013E00822390009E7375
:10014400BB010689828A83E0225002E722BBFE02B9
:09015400E32289828A83E49322EC
:10015D00BB010CE58229F582E5833AF583E0225057
:10016D0006E92582F8E622BBFE06E92582F8E222A1
:0D017D00E58229F582E5833AF583E49322BB
:10018A00BB010689828A83F0225002F722BBFE0154
:02019A00F3224E
:10019C00F8BB010DE58229F582E5833AF583E8F099
:1001AC00225006E92582C8F622BBFE05E92582C845
:0201BC00F2222D
:1001BE00BC000BBE0029EF8DF084FFADF022E4CC25
:1001CE00F875F008EF2FFFEE33FEEC33FCEE9DECEE
:1001DE00984005FCEE9DFE0FD5F0E9E4CEFD22ED34
:1001EE00F8F5F0EE8420D21CFEADF075F008EF2F7E
:1001FE00FFED33FD4007985006D5F0F222C398FD6F
:05020E000FD5F0EA220B
:10021300C5F0F8A3E028F0C5F0F8E5821582700276
:060223001583E038F02213
:10022900BB0110E58229F582E5833AF583E0F5F013
:10023900A3E0225009E92582F886F008E622BBFEF0
:100249000AE92582F8E2F5F008E222E5832AF58336
:08025900E993F5F0A3E99322FB
:10026100BB010DC58229C582C5833AC5830202132C
:100271005011C58229F808E5F026F618F5F0E58257
:1002810036F622BBFE11C58229F808E225F0F5F009
:10029100F218E23582F222F8E58229F582E5832A15
:0D02A100F58374019325F0F5F0E493382205
:1002AE00F8BB0111E58229F582E5833AF583E8F082
:1002BE00E5F0A3F0225009E92582C8F608A6F0223F
:0D02CE00BBFE09E92582C8F2E5F008F22226
:1002DB0075F008758200EF2FFFEE33FECD33CDCCDA
:1002EB0033CCC58233C5829BED9AEC99E58298405D
:1002FB000CF582EE9BFEED9AFDEC99FC0FD5F0D63A
:10030B00E4CEFBE4CDFAE4CCF9A88222B800C1B963
:10031B000059BA002DEC8BF084CFCECDFCE5F0CBA1
:10032B00F97818EF2FFFEE33FEED33FDEC33FCEBDA
:10033B0033FB10D703994004EB99FB0FD8E5E4F995
:10034B00FA227818EF2FFFEE33FEED33FDEC33FC82
:10035B00C933C910D7059BE99A4007EC9BFCE99A76
:10036B00F90FD8E0E4C9FAE4CCFB2275F010EF2FBB
:10037B00FFEE33FEED33FDCC33CCC833C810D707BB
:10038B009BEC9AE899400AED9BFDEC9AFCE899F8F6
:0E039B000FD5F0DAE4CDFBE4CCFAE4C8F92289
:1003A900E8600FECC313FCED13FDEE13FEEF13FF32
:0303B900D8F12256
:0903BC00E0FBA3E0FAA3E0F92242
:0903C500EBF0A3EAF0A3E9F02239
:1003CE00BB010DE58229F582E5833AF5830203BC74
:1003DE005007E92582F8020404BBFE07E92582F8DE
:1003EE0002040DE58229F582E5833AF583020416AF
:0603FE008A838982E4738A
:09040400E6FB08E6FA08E6F9221D
:09040D00E2FB08E2FA08E2F92220
:0C041600E493FB740193FA740293F92242
:00000001FF
