:03000000020520D6
:0C052000787FE4F6D8FD758120020567A5
:0C000300000000000000000000000000F1
:0B0A4700EF1FAC0670011E4C70F62281
:1009CD00AB07AA06EB1BAE0270011A4E60097FAA97
:0809DD007E05120A4780ED229D
:1003C400907120E04480F07F057E00120A47E4FF2C
:1003D400FE1209CD75A75575AC589071327450F062
:1003E4009071307403F0907136742FF07F18EF24FD
:1003F40066FDE434718D82F583E4F00FEFB433EEDF
:10040400904011E4935407FF90711CE054F84FF0AE
:10041400904017E493547FFF90711DE054804FF097
:10042400904010E493FF5401C43333335480FE905E
:100434007123E0547F4EF0EFC313543F4440FFA3B5
:10044400E054804FF0904012E493FF540FFE9071FB
:1004540046E054F04EF0EFC4540FFF90714FE05457
:10046400F04FF0904013E493543FFF907140E054F8
:10047400C04FF0904014E493907126F0904015E43E
:0E04840093907128F0904016E49390712AF046
:010492002247
:10073E0042602C000042602E0000C100C1014160E9
:02074E00300079
:1008BB0078E2E24430F278C3E2440CF2907123E028
:1008CB0054D8F0E0441DF09071227407F043AA0451
:1008DB00D2AF786AE24479F218E24448F27F017EA3
:0408EB00000209CD31
:0D000F00EF146006047005D20022D2012219
:0D0A2100EF146006047005C20022C201221D
:1009FC00E4FEEF146007047009A2008002A201E477
:040A0C0033FEAF0600
:010A100022C3
:10002100E4FDFCC2AFEF14600804700D90602C80F9
:0F0031000390602EE0FCA3E0FDD2AFAE04AF055C
:01004000229D
:100A1100EF24FE600704700775991222759905226B
:1006F600906030E06004E0B4040C7F01120A1190AF
:1007060060307401F022906030E0B4010A7869E24A
:100716004401F27402F022906030E0B402097F02D4
:10072600120A117403F022906030E0B4030978696C
:08073600E24401F27404F02218
:030042000205AC08
:1005AC00C0E0C0F0C083C082C0D075D000C000C015
:0305BC0005C00770
:1005BF0090603DE4F0A3F0786BE230E153AF93EF3E
:1005CF0075F010A4FFE594C4540FFDEF4DFF90603C
:1005DF003DE5F0F0A3EFF0E24402F2906030E0B4BA
:1005EF00021390603DE0FFA3E090602CCFF0A3EFEB
:1005FF00F0E4FF8018906030E0B4041490603DE0A8
:10060F00FFA3E090602ECFF0A3EFF07F0112000F59
:10061F00D007D005D000D0D0D082D083D0F0D0E09A
:01062F003298
:080750004560310102080A6452
:1009E500906031E0FBE4FAF9F87F807EBBFDFC12F4
:0709F50001C3EF24FFFF2204
:1009220043A820D2AF75D1011209E5EE34FFFEEDE6
:1009320034FFFDEC34FFFC78081202557895EFF293
:100942001209E57894EFF2789174A0F21874E1F24A
:010952002282
:03001E0002078650
:10078600C0E0C0F0C083C082C0D075D000C000C039
:1007960001C002C003C004C005C006C0077891E2CC
:1007A60030E70AE24480F21207CE1206F6D007D0EE
:1007B60006D005D004D003D002D001D000D0D0D0CE
:0807C60082D083D0F0D0E032B4
:1007580050601C0000000001FF0A6F000000000A42
:03076800FF063059
:1009AF00EF75F008A4241DF582E43460F58322EF7F
:0E09BF0075F008A4241CF582E43460F5832250
:10084A00E490603BF0F090603BE0FFC39402502BD1
:10085A001209BEE0601D90603BE01209BFE4F0EFB0
:10086A0075F008A42421F582E43460F58312026845
:0B087A001202AA90603BE004F080CB6B
:010885002250
:1007CE00E4FF1209AFE475F0011200BFEF75F008F7
:1007DE00A4241FF582E43460F583E0FCA3E0FD124F
:1007EE0009AFE0FAA3E0C39DEA9C400D1209AFE405
:0E07FE00F0A3F01209BE7401F00FEFB402C4B4
:01080C0022C9
:0B0A5200AC06ECF218EFF27817E2227D
:1004930078E2E254F3F2E24404F290718F740AF0CA
:1004A30078C3E254CFF2E24410F29071847409F0FD
:1004B3007856E4F278277409F218745FF27833E41B
:1004C300F218F27819E254FEF218E24401F27811BC
:1004D300E24401F27817E24401F27812E24401F2B5
:1004E3007814E24401F27857E4F278297409F21897
:1004F300745FF27837E4F218F27819E254FDF218D7
:10050300E24402F27811E24402F27817E24402F282
:0D0513007812E24402F27814E24402F2226F
:090A5D007833120A524401F2221E
:090A66007837120A524402F22210
:0C076B0041603F004160400041604100DF
:070A780078F3E254F3F222CF
:10080D00E490603CF078F0E254FDF20812083E30BE
:10081D00B10690603C7402F078F1E254FDF21812CA
:10082D00083E20B10690603C7401F090603CE0FF02
:0D083D0022E24402F27F017E001209CD226A
:10063000E490603BF012080D90603BEFF09060405A
:10064000E0FF90603BE06F600DE490603FF09060F1
:100650003BE0906040F090603FE0C394035004E0C2
:1006600004F022906041E0700690603BE0603590BD
:100670006041E0700C90603BE06006906041740166
:10068000F090603BE06012E07B017A607900B40199
:10069000047D02800C7D0180087B017A6079007DF9
:0406A000011206A598
:0106A4002233
:06077700436019000000C0
:1009840090001612027A1202AA90601902026812EA
:1009940000D5D39479E5F09406900005E422E49020
:0B09A400000102009D90000102005EB7
:0C0A3B00E4FFFE120A5DE4FFFE020A6602
:070A7F007FF87E07020A5D0B
:070A86007FF87E07020A66FB
:10088600E4FF1209FCEF6012E4FF120A21E4FF12F2
:100896000021906007EEF0A3EFF07F011209FCEF54
:1008A60060127F01120A217F01120021906009EE79
:0508B600F0A3EFF022A9
:1008EF00E4906000F0A3F0A3F07BFF7A0A797F9089
:1008FF0060101202717A0A79869060131202717A6F
:10090F000A793B9060161202717A08798690600D11
:03091F0002027160
:1006A50090603CEDF09060191202711200456D608A
:1006B5003F12098D1209841209A290603CE0146072
:1006C5001114601224027013120045B40102800651
:1006D500800074018002740212008B12098D900053
:1006E50003E475F03212015A900002740112009D64
:0106F50022E2
:1002CE0090601912027190000212005E601C1209F9
:1002DE008D9000031200D5D39400E5F09400400AEF
:1002EE0090000374FFF5F012010D12098D900002BB
:1002FE0012005E603C9000031200D545F070329003
:10030E00000212009D120045906019B4010D1202F8
:10031E006874011209A390001080101202689000F8
:10032E0001740212009DC29790001312027A1202FB
:10033E00AA12098D1209A96002C29790000D120926
:10034E00871209A9B4010A900007120993401E8072
:10035E000E1209A9B40212900009120993400875F1
:10036E00F00112010D800B8004900005E4F5F012EF
:10037E00015A1209A990000B6009E475F0011201EF
:10038E000D8006E4F5F012015A9000051200D5D347
:10039E0094C8E5F09400500F90000B1200D5D39442
:1003AE0040E5F0941F400E1209A212098412004576
:0603BE00B40102D29722F7
:090A6F007B017A6079000202CEDD
:0D0A2E0078D3E2543FF2E24440F2C2972236
:08077D004560360102080A6420
:100953001203C475D95590715EE054FEF075D9BB8E
:100963001204931208BB120A78120A2E1208EF120D
:1009730009227F0A7E001209CD75D9AA12084A807E
:01098300F87B
:10052C00020953E493A3F8E493A34003F68001F289
:10053C0008DFF48029E493A3F85407240CC8C333D0
:10054C00C4540F4420C8834004F456800146F6DF9F
:10055C00E4800B010204081020408090073EE47EEA
:10056C00019360BCA3FF543F30E509541FFEE49394
:10057C00A360010ECF54C025E060A840B8E493A35B
:10058C00FAE493A3F8E493A3C8C582C8CAC583CA86
:10059C00F0A3C8C582C8CAC583CADFE9DEE780BE3E
:010785000073
:10004500BB010689828A83E0225002E722BBFE02B9
:09005500E32289828A83E49322EC
:10005E00BB010CE58229F582E5833AF583E0225057
:10006E0006E92582F8E622BBFE06E92582F8E222A1
:0D007E00E58229F582E5833AF583E49322BB
:10008B00BB010689828A83F0225002F722BBFE0154
:02009B00F3224E
:10009D00F8BB010DE58229F582E5833AF583E8F099
:1000AD00225006E92582C8F622BBFE05E92582C845
:0200BD00F2222D
:1000BF00C5F0F8A3E028F0C5F0F8E58215827002CC
:0600CF001583E038F02269
:1000D500BB0110E58229F582E5833AF583E0F5F069
:1000E500A3E0225009E92582F886F008E622BBFE46
:1000F5000AE92582F8E2F5F008E222E5832AF5838C
:08010500E993F5F0A3E9932250
:10010D00BB010DC58229C582C5833AC5830200BFD7
:10011D005011C58229F808E5F026F618F5F0E582AC
:10012D0036F622BBFE11C58229F808E225F0F5F05E
:10013D00F218E23582F222F8E58229F582E5832A6A
:0D014D00F58374019325F0F5F0E49338225A
:10015A00F8BB0111E58229F582E5833AF583E8F0D7
:10016A00E5F0A3F0225009E92582C8F608A6F02294
:0D017A00BBFE09E92582C8F2E5F008F2227B
:1001870075F008758200EF2FFFEE33FECD33CDCC2F
:1001970033CCC58233C5829BED9AEC99E5829840B2
:1001A7000CF582EE9BFEED9AFDEC99FC0FD5F0D68F
:1001B700E4CEFBE4CDFAE4CCF9A88222B800C1B9B9
:1001C7000059BA002DEC8BF084CFCECDFCE5F0CBF7
:1001D700F97818EF2FFFEE33FEED33FDEC33FCEB30
:1001E70033FB10D703994004EB99FB0FD8E5E4F9EB
:1001F700FA227818EF2FFFEE33FEED33FDEC33FCD8
:10020700C933C910D7059BE99A4007EC9BFCE99ACB
:10021700F90FD8E0E4C9FAE4CCFB2275F010EF2F10
:10022700FFEE33FEED33FDCC33CCC833C810D70710
:100237009BEC9AE899400AED9BFDEC9AFCE899F84B
:0E0247000FD5F0DAE4CDFBE4CCFAE4C8F922DE
:10025500E8600FECC313FCED13FDEE13FEEF13FF87
:03026500D8F122AB
:09026800E0FBA3E0FAA3E0F92297
:09027100EBF0A3EAF0A3E9F0228E
:10027A00BB010DE58229F582E5833AF5830202681E
:10028A005007E92582F80202B0BBFE07E92582F889
:10029A000202B9E58229F582E5833AF5830202C2B0
:0602AA008A838982E473DF
:0902B000E6FB08E6FA08E6F92273
:0902B900E2FB08E2FA08E2F92276
:0C02C200E493FB740193FA740293F92298
:00000001FF
